:020000040800F2
:10000000582400208D010008294300087D41000884
:1000100000000000000000000000000000000000E0
:10002000000000000000000000000000BD430008C8
:1000300000000000000000002B430008BF43000840
:100040009F0100089F0100089F0100089F01000810
:100050009F0100089F0100089F0100089F01000800
:1000600065680008FD0900089F0100089F0100085D
:100070009F0100089F0100089F0100089F010008E0
:100080009F0100089F0100089F0100089F010008D0
:100090009F0100089F0100089F0100089F010008C0
:1000A0009F0100089F0100089F0100089F010008B0
:1000B0009F0100089F0100089F01000800F002F85E
:1000C00000F054F812A030C8083824182D18AC429B
:1000D00001D100F04BF80FCCA246AB460CA730CFB5
:1000E0002D1B083F3F197C427F1E54442D090426D6
:1000F000F441641EAC4201D300F038F801263342CB
:1001000000D0FB1A3343984754465D46DFE70000B2
:100110003C6D00005C6D0000103A02D378C878C1D5
:10012000FAD8520701D330C830C101D504680C6039
:1001300070470000704700000023002400250026BF
:10014000103A01D378C1FBD8520700D330C100D593
:100150000B60704710B5642902D100F071F810BD32
:10016000002010BD1FB51FBD10B510BD00F0E3FA93
:100170001146FFF7F7FF06F063FC00F0FBFA03B44B
:10018000FFF7F2FF03BC00F001FB000007488047C7
:1001900007480047FEE7FEE7FEE7FEE7FEE7FEE76B
:1001A00004480549054A064B7047000051440008C1
:1001B000BD000008581C00205824002058200020B2
:1001C000582000200FB41CB5084B06AA7B44694692
:1001D0000090059800F083FA04460020694600F07C
:1001E00091FA20461CBC08BC04B018473505000035
:1001F00070B5044685690068C10601D5302600E067
:100200002026C00707D070BD62683046A1689047BD
:10021000206A401C20626D1EF6D570BD70B5044684
:1002200085690078C00707D170BD6268A168202089
:100230009047206A401C20626D1EF6D570BD0000FC
:10024000F7B5002575291068009914A611D0C0468D
:10025000C046002802DA404211A608E00099096869
:100260008A0701D50FA602E0490704D50EA601258D
:1002700001E0C046C046009F0024243704E000F09F
:1002800046FA30313955641C0028F8D12B463246E5
:100290002146009800F0C5F9FEBD000000000000F6
:1002A0002D0000002B00000020000000F3B50446E4
:1002B000002081B020622046E168884700287DD078
:1002C000252802D06268A16883E0454F00257F445D
:1002D0002046E16888472028064608DB312E06D2F2
:1002E000B81920380078002801D00543F0E7A807A6
:1002F00001D5042085430020E0610746A0612A2E35
:100300000AD0304606F071FD002827D0B800001949
:10031000303E0090866119E00298BA00121902C8B6
:10032000916102902046E1688847012F064617D167
:10033000E06900281FDA202085431CE000980A218C
:100340008069484300998019303888612046E16807
:100350008847064606F049FD0028EFD1012F0AD054
:100360002E2E08D12046E168884706462020054306
:100370007F1C022FC3DBA069002803DA4042A06182
:1003800001200543E80701D010208543002E24D02A
:1003900030464138192803D80120C00205432036D1
:1003A000204625603146029A1546FFF7D3FE002805
:1003B0000CD0012807D0ED1DE80800E00DE0C000DA
:1003C0000830029077E72D1D029574E76268304689
:1003D000A1689047206A401C6CE7206AFEBD0000BF
:1003E000266B000001E004C0091F0429FBD28B0723
:1003F00001D50280801CC90700D002707047002917
:100400000BD0C30702D00270401C491E022904D33E
:10041000830702D50280801C891EE3E70022EEE7F5
:100420000022DFE7002203098B4273D3030A8B42C9
:1004300058D3030B8B423CD3030C8B4221D312E0E5
:1004400003460B437FD4002243088B4274D3030935
:100450008B425FD3030A8B4244D3030B8B4228D3D6
:10046000030C8B420DD30902FF2212BA030C8B42FC
:1004700002D31212090265D0030B8B4219D300E09C
:10048000090AC30B8B4201D3CB03C01A5241830B21
:100490008B4201D38B03C01A5241430B8B4201D3D1
:1004A0004B03C01A5241030B8B4201D30B03C01AFA
:1004B0005241C30A8B4201D3CB02C01A5241830A74
:1004C0008B4201D38B02C01A5241430A8B4201D3A3
:1004D0004B02C01A5241030A8B4201D30B02C01ACD
:1004E0005241CDD2C3098B4201D3CB01C01A524134
:1004F00083098B4201D38B01C01A524143098B42BD
:1005000001D34B01C01A524103098B4201D30B01A5
:10051000C01A5241C3088B4201D3CB00C01A5241CA
:1005200083088B4201D38B00C01A524143088B428F
:1005300001D34B00C01A5241411A00D20146524128
:10054000104670475DE0CA0F00D04942031000D347
:10055000404253409C46002203098B422DD3030A9C
:100560008B4212D38901FC2212BA030A8B420CD3AC
:10057000890192118B4208D3890192118B4204D3D5
:1005800089013AD0921100E08909C3098B4201D355
:10059000CB01C01A524183098B4201D38B01C01A8F
:1005A000524143098B4201D34B01C01A5241030906
:1005B0008B4201D30B01C01A5241C3088B4201D3B5
:1005C000CB00C01A524183088B4201D38B00C01A62
:1005D0005241D9D243088B4201D34B00C01A524139
:1005E000411A00D201465241104663465B1001D3C6
:1005F0004042002B00D54942704763465B1000D350
:10060000404201B50449002802DC491C084000E0D2
:100610000846C046C04602BDFFFFFF7F70477047D7
:100620007047FFB504460D4681B024300090216824
:10063000880604D51022E0699143216000E0012082
:10064000A84201DD471B00E000270498A1697A1940
:100650001018081AA0612078C00602D42046FFF7BF
:10066000C7FD002608E003986268A168805D904796
:10067000206A401C761C206204988642F3DB2078B6
:10068000C0060AD52046FFF7B3FD06E06268A16800
:1006900030209047206A401C206238467F1E002888
:1006A000F4DC07E000986268A168405D9047206A2A
:1006B000401C206228466D1E0028F3DC2046FFF710
:1006C000ADFD2078000602D5022005B0F0BD012066
:1006D000FBE7000001694A1C02610878704700B519
:1006E0008FB002910021059105490193794403914E
:1006F000114604906846FFF7D9FD0FB000BD000019
:10070000E5FFFFFF0A681070521C0A60704701463F
:100710008008081A02091018020A1018020C101892
:10072000C008820012185200891A01E0401C0A39E0
:100730000A29FBD27047754600F024F8AE46050042
:1007400069465346C008C000854618B020B5FFF77B
:1007500027FD60BCB64600260027C0C5C0C5C0C581
:10076000C0C5C0C5C0C5C0C5C0C5403D49084900D9
:100770008D46704710B50446C046C0462046FFF778
:10078000FEFC10BD00487047000100200149182000
:10079000ABBEFEE7260002007047B0B50146806A96
:1007A000836D826D5024234206D0D20610D4006D92
:1007B000426B08469047B0BD01214B021A43826547
:1007C0000268D3681B059B0F05D000F029FDB0BD62
:1007D00000F028FDB0BD837E002BF6D113681B0707
:1007E000F3D593685B070ED40346583354680C2541
:1007F000AC435460FF2402341A68A2430A431A60CF
:1008000000F00EFDB0BD826D2023134383650346C7
:100810005C33C26D0A431A6000F002FDB0BD80B5C2
:10082000806A816D40220A438265C16D04220A43B9
:10083000C26500F0F7FC80BD80B5806A00F0F1FC75
:1008400080BD000070B5054600688168826800249C
:10085000D20726D00222114023D1816805220A4006
:10086000012A16D18168434A0A40911C8160032104
:10087000016001F0F3FB064628688068C00710D0CD
:1008800001F0ECFB811B28680329F6D38168C907B6
:10089000F3D0A86D10210143A965E86D0124204320
:1008A000E865204670BDC046F0B581B0054600241D
:1008B000009400688168C9071CD181682D4A2F32D5
:1008C00011420AD0A86D10210143A965E86D0124E9
:1008D0002043E865204601B0F0BD8168254A1140FB
:1008E00001273943816024480068000205D4687EEE
:1008F000012825D1204601B0F0BD204800682049DC
:1009000006F078F9401C009000980028EFD000987D
:10091000401E009000980028E9D00098401E0090EA
:1009200000980028E3D00098401E0090009800280E
:10093000DDD00098401E009000980028E7D1D6E74F
:1009400001F08CFB064628680168C907D2D181688E
:10095000C90704D18168074A11403943816001F019
:100960007DFB811B28680329EED30168C907EBD101
:10097000A8E7C046E8FFFF7F0827014028000020C5
:10098000400D03000020704700207047B0B51A4C9E
:100990000549002520462A4604F029F80349204647
:1009A00004F014F82846B0BD880D0020880500200A
:1009B00010B50146104C204604F008F8204603F01C
:1009C00053FF002010BDC0460020704710B50A46F6
:1009D0000146AF208000084B185885239B00C05863
:1009E000002801D0012010BD034C204603F0FFFF7A
:1009F000204604F08EF810BD8815002080B502480E
:100A000000F0DCFD80BDC046C8180020EFF3108068
:100A100072B6FEE7F0B583B005460320029001F000
:100A20001DFB0646274F38688003800F18D00298B8
:100A30000404681C11D001F011FB801BA8423ED2B7
:100A400038682042F7D10BE03868204208D0386877
:100A5000204205D03868204202D038682042F3D1C5
:100A60003968194838601948084004D01849486066
:100A7000012003B0F0BD38680021400302D40846CD
:100A800003B0F0BD01208404681C14D0019101F072
:100A9000E5FA801BA84212D238682042F7D10198AB
:100AA00003B0F0BD38682042E9D038682042E6D073
:100AB00038682042E3D038682042F3D1DFE702985B
:100AC00003B0F0BD10200240FBC30800FAC30000D1
:100AD000341C0020F0B589B0044600270897542044
:100AE000205C012803D10225284609B0F0BD20462C
:100AF00054300125069005702046FFF7A3FE2668B6
:100B0000B268A16DD2073FD1029081225200914379
:100B1000891CA165F168F268D74B1340F360B26895
:100B2000D648024012181832B260D54808400190E9
:100B30003046B4300590D34BB16800292DD50899C3
:100B4000491C08910899994200D989E1B1680029A6
:100B500023D50899491C08910899994200D97FE149
:100B6000B168002919D50899491C0891089999423A
:100B700000D975E1B16800290FD50899491C089181
:100B800008999942D8D96BE110221143069A17703F
:100B9000A1650546284609B0F0BD05980168B26810
:100BA000EF480240183003900243B2607F20049067
:100BB0000140B268002A24D5089A521C0892089A6B
:100BC0009A4200D94CE1B268002A1AD5089A521C00
:100BD0000892089A9A4200D942E1B268002A10D5D8
:100BE000089A521C0892089A9A4200D938E1B268D1
:100BF000002A06D5089A521C0892089A9A42D8D917
:100C00002EE1059802680097B768D5480740039819
:100C10000743B760009F049802405118B268002A49
:100C200024D5089A521C0892089A9A4200D917E1D2
:100C3000B268002A1AD5089A521C0892089A9A4259
:100C400000D90DE1B268002A10D5089A521C08920A
:100C5000089A9A4200D903E1B268002A06D5089A98
:100C6000521C0892089A9A42D8D9F9E0059802686D
:100C7000B768BB48074003980743B760009F0498D4
:100C800002405118B268002A24D5089A521C0892D2
:100C9000089A9A4200D9E3E0B268002A1AD5089A65
:100CA000521C0892089A9A4200D9D9E0B268002AE8
:100CB00010D5089A521C0892089A9A4200D9CFE09F
:100CC000B268002A06D5089A521C0892089A9A42DD
:100CD000D8D9C5E005980268B768A14807400398CD
:100CE0000743B760009F049802405118B268002A79
:100CF00024D5089A521C0892089A9A4200D9AFE06B
:100D0000B268002A1AD5089A521C0892089A9A4288
:100D100000D9A5E0B268002A10D5089A521C0892A2
:100D2000089A9A4200D99BE0B268002A06D5089A30
:100D3000521C0892089A9A42D8D991E00598026804
:100D4000B7688748074003980743B760009F049837
:100D500002405118B268002A21D5089A521C089204
:100D6000089A9A427CD8B268002A18D5089A521C70
:100D70000892089A9A4273D8B268002A0FD5089A46
:100D8000521C0892089A9A426AD8B268002A06D57C
:100D9000089A521C0892089A9A42DBD960E005989A
:100DA0000268B7686E48074003980743B760009F22
:100DB000049802405118B268002A21D5089A521CA2
:100DC0000892089A9A424BD8B268002A18D5089A15
:100DD000521C0892089A9A4242D8B268002A0FD54B
:100DE000089A521C0892089A9A4239D8B268002A86
:100DF00006D5089A521C0892089A9A42DBD92FE02D
:100E000005980268B7685648074003980743B760DB
:100E1000009F049802405118B268002A34D5089AFD
:100E2000521C0892089A9A421AD8B268002A2BD506
:100E3000089A521C0892089A9A4211D8B268002A5D
:100E400022D5089A521C0892089A9A4208D8B26889
:100E5000002A19D5089A521C0892089A9A42DBD99E
:100E600006980770A06D1021014302208143A165FF
:100E7000284609B0F0BDC046FC7FFFFFE8FFFF7FBA
:100E800003800000FFF1020005980268B36834484F
:100E9000034001252B43B360049802405118C90850
:100EA0003269920F29D10F229204D74B1B6813404D
:100EB0009B0C072B21D3DA1E012393400793079A3B
:100EC00052080792079A002A17D0079A521E0792D3
:100ED000079A002A11D0079A521E0792079A002AF1
:100EE0000BD0079A521E0792079A002A05D0079A3C
:100EF000521E0792079A002AE7D105980268049BC0
:100F00009A430A430260B1681548014002200590E7
:100F10000143B16001F0A2F8064620688168C90764
:100F200012D001F09BF8811B20680329F6D3816859
:100F3000C907F3D0A06D10210143A165E06D2843DE
:100F4000E065284609B0F0BDC168019A1143C1604F
:100F5000A06D0121014305988143029816E6C04621
:100F6000E8FFFF7FF0B589B0002508955422825C28
:100F7000012A03D10224204609B0F0BD06465436AA
:100F800001243470026893685B0714D404694B68C9
:100F9000022B18D104200443994884426FD197480A
:100FA000C0430B68D9430143906A08409062002413
:100FB000002B75D567E0816D20220A43826535706C
:100FC000204609B0F0BD07960693042634438B4BA8
:100FD0008B4FBC4268D10F683B40906A18439062C7
:100FE00038025369834389680140864808401843A2
:100FF00050610024002F04D4079E3570204609B0AC
:10100000F0BD012680483B46076807208205394627
:1010100011407E480293834200D08CE0F0053B46AD
:10102000034000D087E0784F3B6893431943014366
:10103000396079480068794905F0DCFD0C214143AD
:101040000C31089108980028D6D0079E0898401EB9
:1010500008900898002823D00898401E0890089807
:1010600000281DD00898401E08900898002817D026
:101070000898401E089008980028E7D110E00B68F7
:101080000024002B0CD5FA480168614A93426DD0C8
:10109000604A93426DD05D4A934201D1052266E0D9
:1010A0003570204609B0F0BD029605951F27069CB5
:1010B00027400F2500950397BD40046E0195AC4372
:1010C00004940F681F424DD0FB07059D2C4662D14A
:1010D000BB075BD47B075BD43B075BD4FB06029C5E
:1010E00059D4BB066AD47B066AD43B066AD4FB0596
:1010F0006AD40297BB0569D4029B5B0569D4029B45
:101100001B0569D4029BDB0469D4029B9B0469D450
:10111000029B5B0469D4029F3B04009C059D3AD46A
:10112000FB0365D4029B9B0365D4029F7B03DB1703
:1011300012241C4018E03648029B834202D130063C
:10114000814208D33348029B834200D054E7B00564
:10115000074000D050E7C64F3B6893431943014313
:10116000396049E77B00DC0E059D14E003229205FF
:1011700001E00322D2051140072292050368934340
:10118000591801603570204609B0F0BD012402E015
:10119000022400E00324039EB440049B1C43046625
:1011A000069B9B08C069984200D819E70198C04384
:1011B000936A0340B800000FB0400FE70524EAE748
:1011C0000624E8E70724E6E70824E4E70924029F69
:1011D000CAE70A24029FC7E70B24029FC4E70C2436
:1011E000029FC1E70D24029FBEE70E24029FBBE7CA
:1011F0001024029FB8E71124029FB5E7FFFF070004
:101200000400008000FFFF0708270140001000B025
:10121000004000B8002000B428000020400D03006A
:101220007047704770470000F0B589B00446002051
:101230000890002C77D00790A06D002807D1254694
:101240005435204600F016F900202870E06501278B
:101250003D072668B068C00027D4B0687F490140C8
:101260002943B1607E4800687E4905F0C3FC400018
:10127000801C08900898002817D00898401E0890F5
:101280000898002811D00898401E08900898002857
:101290000BD00898401E08900898002805D00898A0
:1012A000401E089008980028E7D1B068284208D16D
:1012B000A06D10210143A165E06D01210791084354
:1012C000E065B06804210140A26D10200240511871
:1012D000A16D2BD106900F20C7433A46F33A114037
:1012E000891CA165B168C9077DD103900497274681
:1012F0002037216B4A1E91410D03A168227E920383
:101300000A43617EC9031143A27E50030843E36888
:1013100003432B430120C50721690029059002954D
:1013200009DAA94308E0012009B0F0BD0143A16535
:10133000384609B0F0BD41050B43387B45001D43DD
:101340003878012809D1002A11D0A06D202101434D
:10135000A165E06D05990843E065626A002A0CD03A
:10136000072080010240A16A1143294306E0059845
:1013700000040543626A002AF2D12946F0683A4A1D
:1013800002400A43F2600320820763681D4615404D
:10139000E16C387F01280ED1206C0090676CA06C46
:1013A000019000980743019807432F430F43059886
:1013B00007433D4600E00D43049F30692B4901403F
:1013C000294331610298834203990CD093420AD099
:1013D00005988007834206D08804034024490A68A0
:1013E0008243D0180860706907229043656B2843D8
:1013F0007061706970218843A16B090101437161BB
:10140000216901235805814203D000290BD1B06A1C
:1014100007E0B06AE06980001C301C2101408F4069
:10142000206E3843B06270691040A8420AD1002093
:10143000E065A06D0121014302208143A165079869
:1014400009B0F0BDA06D0699084302218843A0654C
:10145000E06D1843E065184609B0F0BDE8FFFF6F86
:1014600028000020400D03000102DEFF02FCFF1FE8
:1014700008270140F0B587B0044600260696059679
:1014800000681D49884201D007B0F0BD1B48C16803
:10149000012702973A051143C160C16811400191CB
:1014A0000199016839430160006838400190049651
:1014B00003200390019805200090000702A900F086
:1014C000EFFC0F4D2E622020B9023A0280230D4F0F
:1014D0002F60009F6F60AE60EE602B616A61A96152
:1014E000E861284600F0DEF8002801D0FFF78EFA08
:1014F000AC62256507B0F0BD002401403410024005
:10150000C818002008000240F0B581B00E4604461D
:1015100000688168022749071CD400925421615C4D
:10152000012917D02546543501272F70C168C907F6
:101530000BD18168C90704D081681B4A0A40911CFD
:101540008160C16801220A43C2602046FFF7ACF9FE
:10155000002802D0384601B0F0BDA06D134901400B
:10156000012000020818A0650020E06521681C2207
:101570000A602870206D0E4A0E4B0F4DC562036342
:1015800042634A68102313434B6040313246009B4C
:1015900000F01CF9074620688168034A0A40111DC3
:1015A0008160384601B0F0BDE8FFFF7FFEF0FFFF2D
:1015B0001F080008390800089B070008F0B585B02F
:1015C000016C03910B6806683268042502922A4078
:1015D000514251410490426C18461C2313402F463F
:1015E0009F403A460240544254410C432ED001964B
:1015F00001220227029E314639404D424D419F4013
:101600000742009200D02A46049C25462435002A31
:101610002CD008210E4077427741D840000700982F
:1016200000D5384600281FD1019A10680E21884342
:101630001060012001469940039A5160E063002147
:1016400029706870616B00290CD10DE0306880064C
:1016500002D43068A843306003984760049C216B33
:10166000002901D02046884705B0F0BD019B1868CD
:10167000800605D418680A21884318600120687024
:1016800000202870054A10467C30834200D9044A65
:101690001760E16A0029E5D1E6E7C0460400024090
:1016A00004040240F0B587B0002812D00446014679
:1016B00024310220069148703C48014608312668D2
:1016C0008E4200D23A4820648E42039104D33A48B5
:1016D00003E0012007B0F0BD3648801914210291C3
:1016E00005F088FA80000590606430683349014055
:1016F0003160A768E168254610352DCD0195256A32
:10170000049508431043184301990843049908437A
:1017100031680143049739433160294D28468030B0
:10172000E064FC2030400838029905F063FA039F1A
:10173000BE4200D3C01D1F22024001210B46934030
:101740002365BE4200D31C3505982D18A5648A0375
:101750001C48049E964206D100222A606260036003
:101760001546134618E062687F2616402E60036017
:10177000531E0022032B154613460DD8731E9A00E4
:1017800082180025D56703251D400B46AB400E4D42
:101790002B607C32BC3005460020E0636265A565A5
:1017A000E365069A1070517007B0F0BD0004024066
:1017B00000000240F8FFFDBFF8FBFDBF0F80FFFFF8
:1017C000000802408408024044090240F0B583B09A
:1017D00004462420205C012802D1022003B0F0BD81
:1017E00025462435012028706E78012E2DD10092D7
:1017F000022068700020E06325682A6801260296AE
:10180000B2432A60E26C266D5660626D0192002A36
:1018100002D0A26DE66D5660226C666C1C273740C4
:10182000029EBE4056606B60A368102B009E32463D
:1018300000D00A46AA60102B00D03146E960296822
:10184000226B002A07D00E220AE000212970802195
:10185000E16303B0F0BD0422914329602A680A21A4
:101860001143296002990902A26C1368DB0302D5B7
:1018700013680B431360019B002B02D01A680A43C4
:101880001A602968029A1143296003B0F0BD000074
:10189000F0B586B01F21016042687949012A06D05F
:1018A000082A07D0042A08D10A462C3207E00A4643
:1018B0000C3204E00A46303201E00A461032136866
:1018C0007F241C40846012685202520EC2606D4A2E
:1018D00042610B680C6814408461DAB2AA2A03D111
:1018E0001346CC2A03D003E0BB23CC2A00D11346F5
:1018F000036101273905059103210191090603912F
:10190000FE065F490D68EA02344610D45E490A6853
:1019100003990A4034460AD03B069A4202D1AA02F1
:10192000344604D559490A689205540B3443049649
:101930003E46534F7A68D205920B12190262544AFE
:10194000531CB9680B40C5691540ED18C561C90540
:10195000890B61184F4A891841623A683746049EDC
:1019600005990A42344610D1F1490B6803990B409E
:1019700034460AD039068B4202D19102344604D54E
:10198000EC49096889054C0B34430297E64A5169D2
:101990004902414F39400919816200950199294353
:1019A000C161334616463B4D6119926952023A4075
:1019B0008918C1623268059C224217D0DC490B6845
:1019C00003990B400A26DD4C002B07D0029909062B
:1019D0008B4201D1910201D50926D94CD5490B681A
:1019E000B340234004990B43CF4E059C716A4902D2
:1019F0003940C91801635919B26A52023A4089182C
:101A000041633268224204D1049A234B029F009D15
:101A10001BE0C7490B6803990B400A24C74E002BF3
:101A200009D0029F39068B42009D01D1910204D555
:101A30000924C34E01E0029F009DBE490A68A240EE
:101A4000324004990A43B84E134B716B4902194056
:101A5000891881630F495118B26B52021A408918D4
:101A6000C1630F210D43C5613904326E1140016419
:101A7000D1B24164110DC9B2816406B0F0BDC04657
:101A80002020024000FF7F3F0075FF1FE075FF1F11
:101A9000FFFFFF7FFF01000000FE0300F0B589B0EB
:101AA000EA4E3178012902D1022009B0F0BD0021AF
:101AB000069171600121089131700168CA079A4F3F
:101AC0000FD106220A40062A18D1044610341CCC35
:101AD0001443FF229343D2435A403B6813402343AD
:101AE00036E044688268C3681B041343082C21D085
:101AF000042C21D0012C21D1FB60E2E78A070DD410
:101B00004A0726D54269FF239A43DB4353403C688A
:101B10003A68E4B2AA2C13D1254612E03A68834C05
:101B20001440FF22D24362403D68154003692B43B5
:101B300023430DE03B63C4E7FB62C2E73B61C0E7C0
:101B4000BB251A40CC2C00D1254683692B43134377
:101B50003B600A0741D5C369089C22050592032210
:101B600012060492E2060792E407621C13422ED08A
:101B7000026A0292426A03923A68059D2A42079DD0
:101B800012D16B4D2E68049D2E40079D0CD0089DF0
:101B90002D06AE4202D19202079D05D5654A126814
:101BA0009205550B079A1543BA68DE0701D1154611
:101BB00009E0029E761B760A7E605F4E3240039EED
:101BC000751B6D0A1543A14E1C402C43BC609A073F
:101BD0002BD45A074ED41A0779D4C9060AD5396EC0
:101BE000584A0A40016C436C806C0B430005184353
:101BF000104338667D20C4002046FEF70BFF002806
:101C000003D00699317009B0F0BD089845040C3F27
:101C10003868284338602046FEF7FCFE3968A9433F
:101C200039600699317009B0F0BD856AC26A0392C5
:101C30003A68059C2242079C12D13D4C2668049CC0
:101C40002640079C0CD0089C2406A64202D1920292
:101C5000079C05D5374A12689205540B079A14431E
:101C60002A1B520A7A61039A121B520ABA61774EF2
:101C70005A07B0D50391046B456B3968059A114238
:101C8000079A1BD000AA32C2294A1268049C22403B
:101C90000A242A4D002A09D0089E3606B2426B4E0D
:101CA00002D100998A0201D50924254D214A1268E2
:101CB000A2402A40079D2A43029D019CA41A640A5F
:101CC0007C62AA1A520ABA6203991A0785D5846BF4
:101CD000C56B3A68059B1A4201D1079A1AE005952F
:101CE000134B1D68049B1D400A23002D0AD0089E3B
:101CF0003606B542554E114D01D1920203D5092346
:101D00000F4D00E00D4D0B4A12689A402A40079D86
:101D10002A43059DA41A640A7C63AA1A520ABA636C
:101D2000C90600D55BE765E72020024000FF7F3F42
:101D30000075FF1FE075FF1F00FEFFFF00FC0F0096
:101D400000FE070000FF0EF0F0B581B000F086F94C
:101D500004463B4D28688003800F0BD00320060407
:101D60007D20C70000F07AF9001BB8421AD228681B
:101D70003042F7D12968334828603348084002D000
:101D8000324948600EE0286840030BD501208604E4
:101D90007D20C70000F062F9001BB84202D228681B
:101DA0003042F7D10120C007696801436960686863
:101DB000C043C00F01B0F0BD0120C106024A136844
:101DC0000B4313607047C04614200240F0B581B049
:101DD00000F044F904461A4D28688003800F0BD0A8
:101DE000032006047D20C70000F038F9001BB8422C
:101DF0001AD228683042F7D1296812482860124860
:101E0000084002D0114948600EE0286840030BD515
:101E1000012086047D20C70000F020F9001BB84295
:101E200002D228683042F7D1012080076968014357
:101E30006960696801404842484101B0F0BDC04650
:101E400010200240FBC30800FAC30000341C00202D
:101E500006488168490001D40120704704490160A7
:101E60000449016080684000C00F70470C200240A8
:101E70003B2A19087F6E5D4C0648C168002901D4D1
:101E8000002070470449016004490160C068C00F28
:101E90007047C0460820024023016745AB89EFCD5B
:101EA000F0B589B006900D68002D00D1B7E05D480F
:101EB000069A824202D00846052401E0084604241E
:101EC0000B210907069A5118890A930559180091A0
:101ED000042900D3009400231E461C461F460146D9
:101EE00007900EE02943049E5048016007997F1C2B
:101EF0000D682846F8400833361DA41C002800D180
:101F00008DE00120B84005400295F0D0049605937D
:101F10000B4603263146A140C94322465C6825464C
:101F200035406B1E012B08910394019211D806993C
:101F30008B68089E3340079EF66896401E438E606D
:101F4000E306DB0FBB404E6886431E434E60089994
:101F500006E0032D04D135460799049E019C1FE03D
:101F6000069AD068084007998B68019CA3400343F8
:101F7000D360022D049E13D11C2030400F218140DC
:101F8000FB089B00069AD3181D6A8D4307990969BF
:101F90008140294319620799486803250390054049
:101FA000A540069A1068089B1840284310600398C3
:101FB0008003800F059B9AD0182018400A460F21F5
:101FC000814003233D469D43174E73191D6E8D437B
:101FD000009981402943196631685068C30202D5CF
:101FE000029D294301E0029DA9430F4B19605968E6
:101FF000830201D5294300E0A9430B4B59600B49EB
:102000004968830301D5294300E0A943059B074E96
:1020100071603168C00300D564E7A94363E709B084
:10202000F0BDC04600100050001802408018024069
:1020300000690840411E8841704742690B4693433E
:102040000A401104C91881617047002A02D0182281
:102050008150704728228150704700000548006871
:102060007047C0461F48007802490A681018086087
:102070007047C046501C002010B5012420020849BA
:102080000A6802430A60032000F00CF8002801D01F
:10209000204610BD00F02AF80024204610BDC0469E
:1020A0000020024070B50F4E31780124002916D06F
:1020B00005467D20C00004F09DFD01460A480068E9
:1020C00004F098FD02F040F8032D08D8002806D14E
:1020D0000024E0432946224600F030F8756020468F
:1020E00070BDC046000000202800002080B582B0EE
:1020F0000B48416801221143416041681140019140
:102100000199110702680A430260006808400090C4
:1021100000980320400202F00DF802B080BDC046D6
:102120003C100240002805D41F21084001218140B5
:10213000014801607047C04600E100E0002805D476
:102140000322034693430A4A9A1803E00C220240F2
:10215000064BD2188007C00E8901C9B28140FF2307
:1021600083401068984308431060704714ED00E006
:1021700000E400E0B0B5B3218A0000218154036877
:102180005C6D01252C435C6580188560586D0222CA
:1021900002435A650846B0BD10B50446012911D066
:1021A00000291CD1E07A002806D002F00DF90C4875
:1021B0000168062291430160B7208000205802F098
:1021C00045FF10BDB7208000205802F0BDFFE07A27
:1021D000002804D00248016806220A43026010BDAC
:1021E00010ED00E0B0B528240D060BD507252940D9
:1021F0004C4300191430002A0BD083600121017375
:102200000020B0BD4C430019552189004018002A18
:10221000F3D1C380002101730020B0BD80B5B72287
:102220009200835828224A438018826A184602F096
:10223000BDFD80BD80B5B7229200835828224A4355
:1022400080182D22D2008258184602F007FE80BD69
:1022500010B507220A4049B2002908D42821514369
:10226000411855239B00C91800234B7005E0282115
:102270005143411801234B7514310A70A522920075
:10228000835C012B01D1022010BD84180122227031
:10229000006803F069FB0020207010BDB0B50F226C
:1022A0000A4003799A4201D90120B0BD07220A40B1
:1022B00049B2002908D428215143411855239B00D5
:1022C000C91800234B7005E0282151434118012310
:1022D0004B75143100248C700A70A5229200835C27
:1022E000012B01D10220B0BD851801222A7000689F
:1022F00003F0A8FB2C702046B0BD07220A4028211D
:10230000514340181721090140587047B0B50724C0
:102310000C4049B2002908D42821614341185525B1
:10232000AD00491900254D7005E028216143411891
:1023300001254D7514310A61CB700C70022B01D14F
:1023400000220A71A5229200835C012B01D1022098
:10235000B0BD841801222270006803F0E7F9002064
:102360002070B0BDB0B507240C402821614341184E
:102370005525AD004C55491900240D4614351CC592
:102380004C70006803F0B0FB2046B0BD10B50722CA
:102390000A4003799A4201D9012010BD4BB2002BAB
:1023A00008D428234B43C11855239B00C918002388
:1023B0004B7005E028215143411801234B7514311E
:1023C0000A7001228A70A5239B00C45C012C01D1F4
:1023D000022010BDC4182270006803F067FB0020C3
:1023E000207010BD70B507250D40282169434118A4
:1023F000382401260E5500248A62CB620C634B639D
:102400004E750D751431006803F06EFB204670BDEB
:10241000F0B591B00746006804F094F9EF490968F7
:10242000490701D411B0F0BD012401041ED4EC49C8
:10243000491C084201D100F09BFC2546A5208000E4
:102440003C183868416CE74A0A404264384600F05C
:10245000B7FE20780128E5D000267E742570386804
:10246000314604F0F7F9267011B0F0BD0394E30390
:102470003868416C1942D5D0552189000B917918E3
:102480000791A721890079180591039A11020691F5
:10249000D102089103210903009191030A91D10708
:1024A00001910D970F931AE0C900CF4A511849685E
:1024B0000B0CCB490B40E361E288059904F044F929
:1024C00038680168C94A114080220A4302603846D0
:1024D00000F0B3FE0F9B3868416C1942A2D0426CE9
:1024E0000F24144067D0A50046591E4200D12AE2AD
:1024F00041190A68BD4B1A40802313430B60282101
:1025000061437B180B995F18397B00290E9600D127
:10251000DAE0FF215831595C02290C9300D004E124
:10252000397809910A990E4200D063E10A2110918D
:102530001099002917D01099491E1091109900295F
:1025400011D01099491E1091109900290BD01099A3
:10255000491E10911099002905D01099491E10911B
:1025600010990029E7D10999C9009F4A5118496873
:102570000E0C9B490E405B218A0099580291891BE1
:10258000049101D200210491049999500299B14219
:1025900000D88EE10E99490600D596E10999890087
:1025A0004258924B1A400F9BC03313434350002EA6
:1025B00000D08CE1A9E10168D20623D48B4A1140F6
:1025C00019430160387DC00087490858000C8449D0
:1025D00008403863B96A0818B862002638463146A0
:1025E000FFF71CFE0F9B787C002800D173E7F86A88
:1025F000002800D06FE7787C802101433868C164EF
:102600007E7468E7089A114200D0C3E0194200D1F5
:1026100061E70168754A114080220A430260079C05
:1026200021780A221092109A002A17D0109A521E6E
:102630001092109A002A11D0109A521E1092109ADD
:10264000002A0BD0109A521E1092109A002A05D020
:10265000109A521E1092109A002AE7D1C900624ABD
:10266000511849680B0C5E490B40E3610ED061695B
:1026700000290BD0E28804F067F8E0696169081866
:10268000606100213846FFF7D5FD38680F9B01686F
:10269000089A114200D01EE7009A1140914200D1E1
:1026A00019E7514C6168524A114061600799096904
:1026B0003F2900D292E2CA064909002A00D1491EE8
:1026C0008A0661681143F1E239780A221092109A61
:1026D000002A17D0109A521E1092109A002A11D078
:1026E000109A521E1092109A002A0BD0109A521E65
:1026F0001092109A002A05D0109A521E1092109A29
:10270000002AE7D1C900384A511849680E0C3449EB
:102710000E4000D1CBE0FA88796909951D46334611
:1027200004F012F82B46099DF1E039788A008358AD
:102730002E4E33400F9EC0361E43865082580A9B51
:102740001A4200D08EE00A221092109A002A17D066
:10275000109A521E1092109A002A11D0109A521EEE
:102760001092109A002A0BD0109A521E1092109AB2
:10277000002A05D0109A521E1092109A002AE7D112
:10278000C900194A511849680E0C15490E4000D06D
:102790009DE0BAE0079C21780A221092109A002A44
:1027A00000D181E6109A521E1092109A002A00D190
:1027B0007AE6109A521E1092109A002A00D173E6FF
:1027C000109A521E1092109A002A00D16CE6109AAC
:1027D000521E1092109A002AE4D165E6A000014032
:1027E000FF030000FFFB0000009800400F0FFF07F1
:1027F000FFFFFF030A2110911099002917D01099AB
:10280000491E10911099002911D01099491E10915C
:10281000109900290BD01099491E10911099002988
:1028200005D01099491E109110990029E7D10999F6
:10283000C900F94A51580E0CF8490E405B218A0034
:1028400099580291891B049101D2002104910499A5
:1028500099500299B1423CD90E99490644D4002EB0
:102860004DD152E00A221092109A002A17D0109AE5
:10287000521E1092109A002A11D0109A521E1092D5
:10288000109A002A0BD0109A521E1092109A002A09
:1028900005D0109A521E1092109A002AE7D1C90052
:1028A000DD4A51580E0CDD490E4028D12DE000269E
:1028B0002DE0099989004258D94B1A40D94B5A400A
:1028C00042500E99490600D468E6002E1DD07A8940
:1028D00016E0099989004258D14B1A40D14B5A4011
:1028E00042500E994906BAD5099989004258CE4BF3
:1028F0001A400F9BC03313434350002E05D03A8932
:102900007969334603F020FF00E000260C9BF8694C
:102910008019F861786980197861B869002804D055
:10292000592080001858B04205D939780D9F384693
:10293000FFF780FC05E00D9A10683946174603F052
:10294000D3F80F9B0E9E300600D4C4E53868415979
:10295000B54A114019434151282161437A1817465D
:102960001437D17D01291CD10020D0622020105CB9
:10297000002800D12CE1507D710600D58AE00128A5
:1029800000D113E1002800D022E13878C000A2492C
:1029900008184168A54A114041604168019A1143F5
:1029A0000CE106990E4219D13978CB009A4CE358C4
:1029B0001B0C9A4C2340D46AE51A00D20025D5623C
:1029C0009C4200D805E1916AC9189162116BC9183F
:1029D0001163394603F088F80D9F7BE53B7871065B
:1029E0008D4C0E960C9367D40A21109110990029F2
:1029F00017D01099491E10911099002911D01099E3
:102A0000491E1091109900290BD01099491E109160
:102A10001099002905D01099491E1091109900298C
:102A2000E7D1D90063185C68250C7C4C2540D66A38
:102A3000741B00D20024D4621B1DAE4200D88CE06F
:102A40000A990E9C0C4207D10C9989004458764E85
:102A50003440774E344344503821515C01290D9E57
:102A600000D06FE1916A49190E919162116B491979
:102A70001163566A516B14463434B14200D3F6E008
:102A800016463836002900D11FE100253570256033
:102A90000E461DE1012800D192E0002800D097E009
:102AA0003878C000F84B1958F44A11401950195899
:102AB000019A114319508BE00A21109110990029B5
:102AC00017D01099491E10911099002911D0109912
:102AD000491E1091109900290BD01099491E109190
:102AE0001099002905D01099491E109110990029BC
:102AF000E7D1DB00E1580C0CDE490C40D56A2E1BF7
:102B000000D20026D662E049CB18A5423BD90A99EB
:102B10000E9D0D4207D00C9989004558D84E35407E
:102B2000D54E354345503821515C01290D9E00D0CA
:102B300008E1916A09190E919162116B09191163EB
:102B4000556A566BAE4200D394E0154638350021E5
:102B50002970002E00D08FE092E0507D0128CA4AF3
:102B600046D000284ED15058C44C20405050C64842
:102B70004058019A1043C44D6850186820401860AE
:102B8000186810433DE0507D012853D000285BD1E8
:102B90001868BA4A1040186018680199084318600C
:102BA000586810405860586808434CE03878C000B6
:102BB000B5490818416889B241604168416007E041
:102BC0003878C000B04A115889B2115011581150CC
:102BD00039780D9F3846FFF721FB7BE4002964D04C
:102BE0004A08039B19400F9B51188A0661685EE0F2
:102BF000505880B2505050585050186880B21860E9
:102C0000186818600D9E30460C99FFF707FB0A986C
:102C10000E99014221D095E000980040FF0300008A
:102C20000F3FFF0780A000000F0FFF07FFFFFF030C
:102C300080C00000186880B2186018681860586872
:102C400080B25860586858600D9E30460C99FFF766
:102C5000E5FA0A980E99014274D0306839788900F3
:102C60004258874B1A40844B1A4342506AE08D1BEE
:102C700025602DE0711B2E46144634342160344605
:102C8000517D01291CD0002948D119687B4D29406C
:102C900019603F2C37D3E1066509002900D16D1E6C
:102CA000A9061D680D43019936E06168019A114338
:102CB00061600168734A1140744A514001600AE43E
:102CC000196889B21960210425E0002434702E4669
:102CD0000E99547D012C11D0002C2ED11C68674D0B
:102CE0002C401C603F2E1DD3F5067409002D00D129
:102CF000641EA4061D682543019C1CE01C68A4B248
:102D00001C60340416E0002C2CD02146039D294081
:102D10006508691889061D680D431D60928BA3B272
:102D20000E990CE0002E20D03446039D2C407508EF
:102D30002C19A4061D6825431D60D28BB3B203F085
:102D400099FD0D9E30683978890042584C4B3033DC
:102D500013400F9C2246B0325A4023464250374619
:102D6000FFF7B9FB1D680199D6E71D68019CE2E7F2
:102D7000410417D481041DD4B32189007A18C104F9
:102D80001FD4010538D4010648D4810554D4C005A8
:102D900001D4FFF747FB3868416C404A0A4042645F
:102DA00011B0F0BD3448813839684A6C02404A6439
:102DB00011B0F0BD3868416C354A0A40426411B028
:102DC000F0BD3868016C042399430164016C082349
:102DD000994301641078012804D10021117038460C
:102DE000FFF7DAF9384600F0FDF93868416C294AF6
:102DF0000A40426411B0F0BD3868016C08220A43F1
:102E00000264416C244A0A404264016C04220A4371
:102E10000264384600F032FA11B0F0BD1F4980312B
:102E20003868436C0B404364117800290ED0384653
:102E300000F024FA11B0F0BD3868416C184A0A401D
:102E40004264384600F0E0F911B0F0BD016C042393
:102E50000B430364016C08230B4303641470406D3F
:102E600080083C210140516038462146FFF794F923
:102E700011B0F0BDFF03000080C00000FFFFFF03A2
:102E80000F0FFF070F3FFF070098004080B00000C2
:102E9000FFDF0000FFEF0000FFF70000FFFE000073
:102EA000FFFD0000F0B585B000281DD00746A52025
:102EB00080003C186078002804D10020207038463B
:102EC00000F03AF9032504946570386802F0B2FD09
:102ED0003879002800D119E104462C40042807D293
:102EE0000022002C5FD185E00125284605B0F0BD09
:102EF000029403973A46A432FC2303401646673EE9
:102F0000012131701646783E0027376016467C3E18
:102F100037601646803E376016468D3E3770144641
:102F2000903CEE1E267014468F3C217014463F3CA8
:102F300021701446503C27601446543C27601446C8
:102F4000583C27601446653C27701446173C217096
:102F5000114628390F6011462C390F60114630395F
:102F60000F6011463D390F7011466839741C0C70A2
:102F700011464039B41C0C701760111F0F601146C8
:102F800008390F60114615390F70114618390D7048
:102F9000291DA0326C1C9C420D46AFD1CA1E039F56
:102FA000029C002C26D02823194651437E1800216C
:102FB0007162B162F162F175327501257575012C8E
:102FC00018D0561C02943C461F467743E719796295
:102FD000B962F962F9753E757D752746029C022C2F
:102FE00008D0921C5343FB1859629962D962D97573
:102FF0001A755D75002800D188E003220146114052
:10300000042803D20020002959D17FE079239B00B6
:103010000397FB18FC2528401C46673C00252570BB
:103020001C46783C25601C467C3C25601C46803C48
:1030300025601C468D3C25701C46903CD61E267093
:103040001C468F3C25701C463F3C25701C46503C5E
:1030500025601C46543C25601C46583C25601C4697
:10306000653C25701C46173C25701C46283C256095
:103070001C462C3C25601C46303C25601C463D3CD3
:1030800025701C46683C771C27701C46403CB61CCB
:1030900026701D601C1F25601C46083C25601C46D0
:1030A000153C25701C46183C2270151DA033521C7F
:1030B00082422A46B0D1E81E039F002926D028224A
:1030C00013464343FB185524A50058555C190023AB
:1030D00023616361A361E3706370012916D0441C0E
:1030E00016466643BE197455741923616361A36162
:1030F000E3706370022909D0801C4243B918485517
:103100004819036143618361C37043700FCF3C78FA
:103110000094103F02F081FC00257D740120049989
:103120004870387B012800D0DFE63846FFF722F8E8
:10313000284605B0F0BD000070B594B0044601A863
:10314000001D4821FDF76CF920681B49884201D019
:1031500014B070BD0124660312962006019001A8E8
:1031600000F0F8F8002801D0FDF750FC134D286856
:103170003043286028683040009000982868C000DC
:103180000DD4240728682043286028682040009038
:10319000009800F0CDF82868A043286001E000F016
:1031A000C7F80824002120460A46FEF7C7FF20463C
:1031B000FEF7B8FF14B070BD005C00403C10024048
:1031C000B0B50446C079022801D0FDF71FFCB72036
:1031D00085006059012101F053FF605901F0FEFEA6
:1031E000B0BD000010B50446C07A002806D02B48B8
:1031F000016806229143016001F0E6F8B7208000E3
:10320000205801F023FF10BD80B5B7218900405838
:1032100001F026FF80BD10B5A5229200835C012B32
:1032200001D1022010BD841841740122227000686F
:1032300003F010FB0020207010BD80B5B72189007D
:103240004258A72189004118104601F02DFF80BD8A
:10325000B0B50446A5208000215C012901D10220DF
:10326000B0BD251801202870206803F063FA20689B
:1032700002F0CCFB00202870B0BD000010B5044661
:10328000B7208000205801F05FFFE07A002804D0CA
:103290000248016806220A43026010BD10ED00E0FA
:1032A000F0B581B0032569021E4E3246143A136808
:1032B0008B4303431360012461020022884204D13E
:1032C000194801683068400502D4104601B0F0BDCD
:1032D0000092A70206204843144903F08BFC201AF1
:1032E000022816D03168394217D0012811D0316830
:1032F000394212D000280CD0316839420DD0001D5F
:10330000032806D031683942EAD1009A104601B04C
:10331000F0BD2A46104601B0F0BD009A104601B03B
:10332000F0BDC046147000402800002040420F004D
:103330000120800202490A6802430A607047C046C1
:103340000470004001200002A8490A6802430A6094
:103350007047C046F0B587B004460126300205909C
:10336000A07880079F4F049605D400200390206822
:10337000C10751D156E03007394618390191096823
:1033800002900140009108D1019A10680299084307
:1033900010601068084006900698944E30680599B1
:1033A00008433060FEF75AFE05463068059908422A
:1033B00006D1FEF753FE401B0228F6D903201EE07B
:1033C000032003900102B868084011D0216C8842A4
:1033D0000BD0B86804990904BA680A43BA60BA689D
:1033E0008A43BA6080490840B860C00700D0EBE06B
:1033F000B8687D490840216C0143B9600020039002
:103400000098002804D1019A10680299884310603E
:10341000049E2068C10705D0396803229143626881
:103420000A433A60810711D4410717D4C1061DD45D
:10343000C10424D481052AD4410531D481066C49C4
:1034400038D442063DD4420444D452E039680C22B8
:103450009143A2680A433A604107E7D539683022B0
:103460009143E2680A433A60C106E1D5032189022B
:103470003A688A43216911433960C104DAD5396851
:10348000594A114062690A433A608105D4D5032143
:1034900089043A688A43A16A114339604105CDD550
:1034A000032109053A688A43E16A114339608106BC
:1034B0004F49C6D53A680A40A36913433B604206A8
:1034C000C1D5032292033B689343E2691A433A60F1
:1034D00042040ED53A68474B1A40256B2A433A609E
:1034E0005A1C954205D132043B46483B1D681543A2
:1034F0001D60020305D53A6840239A43636B13436A
:103500003B60B305320685020DD53D689D43A66B31
:1035100035433D609E42049E05D13D46483D2E68A0
:1035200016432E60049E18420BD03B689343E56B14
:103530002B433B60954204D13B46483B1D681543F5
:103540001D6003050ED57B680325AB43256A2B431D
:103550007B60012D06D133043D46483D2E681E4355
:103560002E60049E83040ED57B680C25AB43656AF0
:103570002B437B60042D06D133043D46483D2E6825
:103580001E432E60049E10420CD073037D680D40D4
:10359000616C0D437D60994204D1394648390B680E
:1035A00013430B6080010CD578680F490840A16C6B
:1035B000084378600598814203D1483F386810433A
:1035C0003860039807B0F0BDFEF748FD0646854D0C
:1035D000B868800700D50BE7FEF740FD801BA842C6
:1035E000F6D90DE754100240FFFCFFFF00700040C9
:1035F000FFCFFFFFFFFFFF3FF0B583B00D46012176
:1036000000281BD0019102907548006807242040D3
:10361000A84216D272490868A04328430860714E38
:10362000FEF71CFD07466E4800682040A84208D0FF
:10363000FEF714FDC01BB042F5D90321084603B0C4
:10364000F0BD029E30688107674B0CD5410703D55A
:1036500021031A680A431A600F2109021A688A4373
:10366000B16811431960C0071BD15D480068204054
:10367000A8422CD95A490868A04328430860594FEA
:10368000FEF7ECFC0646564800682040A8421ED0D3
:10369000FEF7E4FC801BB842F5D90321084603B0CD
:1036A000F0BD0298406803285DD8810001A25158FE
:1036B0008F46C046C53600086B37000875370008CE
:1036C0007F370008194608390968490559E0029A08
:1036D00010784007444B05D5200319688143D06812
:1036E0000843186018688006400F22D01A683821F5
:1036F0000A403E48082A23D01A680A40102A5ED1A0
:10370000596803220A40032A00D0394859684906FB
:10371000490F491C03F06EFA334949684904490EC0
:10372000484331494968490F491C03F063FA2E4B5D
:1037300006E01846083800688004410F2C48C8404D
:10374000196889093C220A402A4989581F220A40DF
:10375000D0402949086029480068FEF7A3FC0146CB
:10376000084603B0F0BD596D0AE0194608390968EA
:10377000890306E0194608390968890101E0996D55
:103780008907019900D459E71968A14301431960D9
:10379000144FFEF763FC06461348006838210140C9
:1037A00002984068C000814200D15EE7FEF756FCF7
:1037B000801BB842F0D90321084603B0F0BD186859
:1037C0000840202802D10120C003B9E7186808404A
:1037D000182801D00020B3E77D200002B0E7C046E2
:1037E00000200240881300000810024000127A00F6
:1037F0000024F4000C6E00082800002004000020C3
:10380000F0B587B00125002800D188E00495059027
:103810000078C007F44F2FD10598007880074FD467
:103820000598007800070DD5B8683821014018299F
:1038300000D0D1E0386E800704D505988069002853
:1038400000D1AAE0059A1078400774D41078800659
:1038500000D5A6E00598046A002C00D106E2B868FD
:1038600038210140102900D005E1012C00D074E17D
:10387000049D284607B0F0BDB868F96803242246C5
:103880008A4338210140102048408218504250415C
:1038900001256E04082945D0002843D105984168C8
:1038A0002804814208D005221204914200D0FDE094
:1038B000A9043A680A433A60396801433960FFE075
:1038C000B9683820084010214140FA6803252A4091
:1038D00002235340CA1851425141002837D00029D1
:1038E00035D13868059AD168002900D1F8E0072160
:1038F000C9028843116901433960012001023A6815
:103900000A433A608402FEF7A9FB06463868204263
:1039100000D007E1FEF7A2FB801B0228F6D928465B
:1039200007B0F0BD3868304200D175E705984068AF
:103930000028F4D070E7B86838210140202962D10E
:10394000F86D800782D59068002826D07EE7396818
:103950004905059B02D5D96800291ED07F2109029F
:103960007A688A43596909021143796000280DD1A8
:103970000720C002396881431869084338603868F5
:103980008004400FC749C140C7480160C74800686C
:10399000FEF788FB002800D142E7049D284607B0C7
:1039A000F0BD38680121CC05059AD2698905002A45
:1039B00000D1A7E008433860FEF750FB05463868A1
:1039C000204200D046E7FEF749FB401B0228F6D90B
:1039D0000325284607B0F0BD386E0599896900298E
:1039E00000D1A9E0012108433866FEF737FB0646FF
:1039F000386E800700D525E7FEF730FB801B0325D6
:103A00000228F5D98BE7012003900107F86B0840E5
:103A1000029006D1F86B0843F863F86B08400690F3
:103A200006980191A2480068C00513D403980402C7
:103A30009F49086820430860FEF710FB06469C4833
:103A40000068204206D1FEF709FB801B03250228EF
:103A5000F5D964E705988068964C012806D00528BA
:103A600000D0C3E0F86D04210143F965F86D0399B6
:103A70000843F865C4E001252906386803918843A6
:103A80003860FEF7EBFA0646022C00D090E0029573
:103A90006806049038680499084200D1BDE0FEF73A
:103AA000DDFA801B03250228F4D938E73A688243FF
:103AB0003A60A8043A6882433A60002900D182E063
:103AC000FEF7CCFA05463868304200D0A4E6FEF78F
:103AD000C5FA401B6428F6D92546284607B0F0BD34
:103AE00001210A02904338608C02FEF7B7FA0646BD
:103AF0003868204200D193E6FEF7B0FA801B022816
:103B0000F6D90CE788433860FEF7A8FA064638680D
:103B1000204200D19EE6FEF7A1FA801B0325022871
:103B2000F5D9FCE67F200002796881430598406959
:103B300000020843786073E6012188433866FEF787
:103B40008DFA0646386E800700D47BE6FEF786FACB
:103B5000801B03250228F5D9E1E6F868032101401E
:103B6000059C626A914200D017E770210140A26A69
:103B7000914200D011E77F2109020140E26A12025E
:103B8000914200D009E71F2149040140226B914274
:103B900000D002E707214A060240636B9A42049D67
:103BA00000D0BCE649070840A16B88425ED0B6E66B
:103BB0006C063868204255D0FEF750FA801B03256A
:103BC0000228F6D9ABE6FEF749FA054638683042D6
:103BD00000D121E6FEF742FA401B6428F6D92546BB
:103BE000284607B0F0BDC04600100240F96D039AA8
:103BF0009143F965F96D04229143F965002839D0A4
:103C0000FEF72CFA0646F86D800740D4FEF726FA38
:103C1000801B0325A042F6D981E6F86827490140B8
:103C2000059E24367DCE08431043190201432143EB
:103C300029433143F9603868039908433860029892
:103C40000007F9680143F960FEF708FA044638688E
:103C5000049908420AD1FEF701FA001B0325022845
:103C6000F5D95CE6F86814490140F960002528465A
:103C700007B0F0BDFEF7F2F90646F86D800706D5ED
:103C8000FEF7ECF9801B0325A042F6D947E602981F
:103C90000028059A00D0D9E5F86B01998843F863AC
:103CA000D4E5C0460024F4002800002004000020D1
:103CB0000070004088130000FCFFFEEE8C80C111F4
:103CC000F0B500684368180CC8703F261E408E701F
:103CD0001C0A1F2525404D701F047F0F0F70002AFE
:103CE00001D00020F0BD0F22134037090A26774388
:103CF000FB188B7014402B0973431B194B70024047
:103D0000C0B2000970438018C8700020F0BD0000E8
:103D1000F0B581B0006883684B600369164C1C40A5
:103D20008C6004687F20274607408F706302DB0F9A
:103D3000CB70250A28404870230C3F261E400E7089
:103D4000002A02D0002001B0F0BD0F2200921440E2
:103D50003F090A2257433C198C70009C25400009FA
:103D6000504340194870234030095043C018087030
:103D7000002001B0F0BDC046FF7F000070B50028F4
:103D800033D00446064628367078002807D1002034
:103D900030701120C0026060204600F059F8022007
:103DA00070702068C168C9064CD4CA214162532191
:103DB0004162C16849061AD4C16880220A43C260C0
:103DC000FEF74CF905462068C16849060FD4FEF796
:103DD00045F9401B7D21C9008842F4D90320707049
:103DE0002168CA68FF224A6270BD012070BD8169E6
:103DF000164A0A408261A16862690A43E169114377
:103E000082690A43826121690161E16809040269EA
:103E10000A430261204600F089FA2168002802D096
:103E2000FF224A6270BD072040078A6982438A6187
:103E3000206A626A0243A06910438A6902438A6168
:103E4000FF20486201207070002070BDBFFF8FFB13
:103E500010B594B0044601A8001D4821FCF7E0FA13
:103E600020681049884201D014B010BD01242002FE
:103E700011906004019001A8FFF76CFA002801D0AE
:103E8000FCF7C4FDE00308490A6A02430A62A00283
:103E90000A6802430A60096801400091009814B062
:103EA00010BDC046002800403C100240F0B583B071
:103EB00004462820205C012802D1022003B0F0BD76
:103EC000234628330220587001271F70002A0097CC
:103ED000029306D0C87800044A78120217188E7828
:103EE0003CE04878C20603D5EF2210400A30487003
:103EF000CA7800260A2A0FD30A3AD3B2CD255D43E9
:103F0000EB0A0A255D43521B1B0110331343DAB23F
:103F10000A2806D233460EE033461343DAB20A28A3
:103F2000F8D30A38C3B2CD255D43EB0A0A255D43B9
:103F3000401B1B01103312040343D8B207028878D8
:103F40000A2809D30A38C3B2CD255D43EB0A0A25F6
:103F50005D43401B1E011036174306432068CA22EA
:103F60004262532242620A78C168490601921CD417
:103F7000C16880220A43C260FEF770F805462068D7
:103F8000C168490611D4FEF769F8401B7D21C900BC
:103F90008842F4D90320029B58702168CA68FF2226
:103FA0004A620021197003B0F0BDF1B20F430199CC
:103FB0004903C02297430F434760204600F0B6F9FB
:103FC0002168FF224A620028029BEAD100985870BB
:103FD00000200021197003B0F0BD0000F0B583B0DF
:103FE00004462820205C012802D1022003B0F0BD45
:103FF00016460D4622462832022050702068CA21FB
:10400000416253214162012101911170C168490649
:1040100002921CD4C16880220A43C260FEF71EF8D7
:1040200007462068C168490611D4FEF717F8C01B7F
:104030007D21C9008842F4D90320029F787021684D
:10404000CA68FF224A620021397003B0F0BD82695C
:1040500040211140002E04D0002915D10021E97023
:1040600014E0002901D10021E9702A7800210A2AF0
:1040700017D30A3AD3B2CD265E43F30A0A265E432B
:10408000921B1B0110330DE0E9788905029F019E08
:104090002A7812046B781B029A18AB78D3180B435A
:1040A0002BE00B461343DAB213046A780A2A0AD3C8
:1040B0000A3AD6B2CD277743FE0A0A277743D21BA6
:1040C0003601103600E00E46029F1643F2B212028D
:1040D0001A43AB780A2B09D30A3BD9B2CD264E43FB
:1040E000F10A0A264E439B1B09011031019E194318
:1040F000C9B20A43E9788B0513430D4919400160A1
:10410000B10482698A438261E9682A690A43816944
:1041100011438161204600F009F92168FF224A62BB
:10412000002890D17E7000200021397003B0F0BDCE
:104130007F7F7F0003214902024A13688B430343B8
:104140001360704700000140401E010E01D00120A5
:1041500070470749074A5060074803680B4003212E
:10416000890759180160002090600721116070478D
:10417000FFFFFF0010E000E020ED00E0FEE70000A0
:10418000B0B584B03C211748002444542C210125AB
:104190004554C464072104634163816344628462BB
:1041A000C5618576048304210F4AAB071CC00460F7
:1041B000446081600394029401940C38FDF734F854
:1041C000002801D0FCF722FC0394029401950548D5
:1041D00001A9FCF7C7FE002801D0FCF717FC04B0CA
:1041E000B0BDC046641800200024014010B582B064
:1041F00009480168012211430160006810400190E4
:1042000001980924002120460A46FDF797FF204621
:10421000FDF788FF02B010BD3810024083B00D4892
:104220000168042211430160016811400291029962
:104230000168202211430160016811400191019938
:10424000016801221143016000681040009000984D
:1042500003B070473410024010B586B01A480024ED
:10426000FF217F22194B036001239B078460C260FA
:10427000016144618461C4610362446203940294F5
:1042800001940094FFF77AFD002801D0FCF7BEFBF3
:1042900001A98C700C800594049402940A4822466B
:1042A000FFF79CFE002801D0FCF7B0FB0848009007
:1042B000054869460022FFF7F9FD002801D0FCF708
:1042C000A5FB06B010BDC046081C00200028004019
:1042D0000503011880B510481049002200F031FD97
:1042E000002801D0FCF792FB0B480D4900F05CFF61
:1042F000002801D0FCF78AFB07480A4900F0CFFAF2
:10430000002801D0FCF782FB034800F077FF00286B
:1043100001D0FCF77BFB80BD881500200800002041
:104320002C000020C8000020FEE77047F0B581B0E7
:104330000446204E30460C380168802291430160CB
:104340007D20C700306880061B4812D42168C860F1
:10435000FDF784FE05462068C068800620D4FDF77E
:104360007DFE401BB842F6D929210320605401B0DC
:10437000F0BD316820220092914331602168C8600D
:10438000FDF76CFE05462068C06880060BD4FDF77B
:1043900065FE401BB842F6D929210320605403E092
:1043A000002001B0F0BD00203168009A1143316057
:1043B00001B0F0BD182800405F000100704780B5D3
:1043C000FDF750FE80BD000070B594B000250C953F
:1043D0000B950A950995089501267002FEF760FF76
:1043E000FEF7B0FF1948016808220A4310218A43EA
:1043F0000260B007139070041190182010900F9570
:1044000002240D94079630040690052005900320A1
:104410000E904006129005A8FFF7F2F9002803D08D
:10442000EFF3108072B6FEE7049503950720019024
:10443000029401A82146FFF7DFF8002803D0EFF32C
:10444000108072B6FEE714B070BDC0465C1002402A
:104450007047000010B50A4603A0F64C214600F054
:1044600019FC204610BDC04643444320436F6E668E
:1044700069670000F0B581B005465920C300E8180F
:10448000C06880002C180B2080012758002F25D0F1
:104490000F2200910A40142050432E18B0690028C2
:1044A00008D0E95828235343C918496AFBF7BAFFD3
:1044B000002917D04120C00038180026C660B1215D
:1044C000890061580B69002B05D021210901791859
:1044D0000068009A9847304601B0F0BD0326304688
:1044E00001B0F0BD18363046002606602846009917
:1044F0003246334600F032FE304601B0F0BD70B5B2
:104500000446B520800022589200A2180B239B017C
:10451000D258002A14D02618812080001518204671
:1045200000F0D7FCA860306880002018B121890015
:104530004058C2682868083529469047002070BD59
:10454000032070BDF0B581B00446812100F01EFC4F
:10455000002525870121204600F018FC2F20C000EF
:1045600025528221204600F011FCE564AF20800036
:104570002618B069800020180B218F01C15900292D
:104580000ED0B1218900405840688047E419B069D5
:104590008000205801F0C4F8B069800025503560D3
:1045A000002001B0F0BD00001220088000487047D4
:1045B000A8000020B0B5B5218900415889004018F5
:1045C0000B2189014158002912D0B1229200835851
:1045D0000024002B0AD0012040020D182878FF2863
:1045E00004D06A789B689847FF2028702046B0BDA9
:1045F0000320B0BD0A21018000487047BC000020A4
:10460000F0B581B004463A4F8221384600F005FBF0
:1046100006460121384600F000FB05468121384658
:1046200000F0FBFA002E01D01021B171002D03D053
:104630000021697140212971002803D000214171B6
:104640004021017143202080294801B0F0BDC046BF
:10465000F0B581B00090264C8221204600F0DDFAB2
:10466000064601272046394600F0D7FA0546812143
:10467000204600F0D2FA002E01D01021B17179024B
:10468000002D02D029710A0A6A71002802D0017136
:10469000090A4171432000990880154801B0F0BD16
:1046A000F0B581B00446124F8221384600F0B5FAC9
:1046B00006460121384600F0B0FA05468121384609
:1046C00000F0ABFA002E01D01021B171002D03D003
:1046D0000021697140212971002803D00021417116
:1046E0004021017143202080014801B0F0BDC04647
:1046F00064000020F0B587B00446AF208000261883
:1047000001200690450228461C3001F00BF80028D5
:1047100053D007462F20C00020180290812080002F
:104720003818049020464C3003908720810038468A
:10473000FBF776FEB069800020180B2189014750F5
:1047400005963760207C0028009500D04025812107
:104750000227019720463A462B4600F01BFC069E96
:104760002687204631463A462B4600F013FC029835
:1047700006801020039F7880822103220823204690
:1047800000F008FC0020049D28603E800646059845
:10479000806980002018B121890040580068804756
:1047A00001982E616E612A68002A15D0207C0121B3
:1047B00000280CD0402320460BE0B0698000201870
:1047C0000B21890100224250022007B0F0BD204693
:1047D000009B00F0F3FB304607B0F0BD10B50A4671
:1047E00003A0204C214600F055FA204610BDC046DB
:1047F00043444320496E746572666163650000003E
:104800000420088000487047DC00002010B50A46EC
:1048100003A0144C214600F03DFA204610BDC046CE
:1048200053544D6963726F656C656374726F6E6922
:10483000637300006801002010B50A4603A0094C0C
:10484000214600F027FA204610BDC04653544D3390
:1048500032205669727475616C20436F6D506F72AF
:10486000740000006801002010B5B521890041588E
:10487000890041180B2292018A58002A05D0037C36
:104880000121002B03D0402302E0032010BD4B0286
:104890008124A400125900F091FB002010BD0029D2
:1048A00009D0B5229200825892008018B12292005D
:1048B00081500020704703207047000010B51A2077
:1048C0000880404801688268521879D041683E48A3
:1048D00000234376C3754375C3744374C373437332
:1048E000C3724372C3714371C3700F231340140723
:1048F000640F052C01D3373300E030330374540FB9
:10490000130F052C01D3373300E0303383704C0F85
:104910000B0F052C01D3373300E0303383741306BB
:104920005C0F1B0F052C01D3373300E0303383734A
:1049300013055C0F1B0F052C01D3373300E0303318
:10494000037313045C0F1B0F052C01D3373300E0F6
:104950003033837213035C0F1B0F052C01D33733E5
:1049600000E03033037213025C0F1B0F052C01D3E0
:10497000373300E0303383711201530F120F052BD0
:1049800001D3373200E0303202710A03530F120FA5
:10499000052B01D3373200E0303202760A02530F82
:1049A000120F052B01D3373200E030328275090136
:1049B0004A0F090F052A01D3373100E03031017564
:1049C000014810BD9075FF1FE0000020B522920045
:1049D0008258920080180B2292018058002804D03F
:1049E0008122920081500020704703207047B52338
:1049F0009B00C3589B00C0180B239B01C058002884
:104A000006D04123DB00C01882600160002070479F
:104A100003207047F0B583B00E460546A7208000FE
:104A20002918886B800028180B229201875802AA47
:104A30000024147001AA14800322002F1CD00092BD
:104A4000337860221A401BD0202A5AD1F288002ADB
:104A50002BD059B2002934D4012040023818402A02
:104A600000D340224270717801702846394600F028
:104A700099F8204603B0F0BD1446204603B0F0BDBF
:104A800070780B283DD8C0467844007940008744B0
:104A9000060538383838383838382A35E9E708789C
:104AA00003282ED101A9022222E0B1218900405819
:104AB000836870780024314622469847204603B028
:104AC000F0BDB12189004058836870783946984715
:104AD000F288072A00D307222846394600F081F8D9
:104AE000204603B0F0BD087803280AD102A90122AC
:104AF000284600F076F8204603B0F0BD0878032879
:104B0000B7D02846314600F043F8009C204603B059
:104B1000F0BD80B5B52189004158890041180B22AC
:104B200092018958002907D04122D2008918CA6809
:104B3000002A03D0012080BD032080BD0122CA606D
:104B40008B68C3620A68812100F008FB002080BDE9
:104B500080B55722D200825852689047002800D072
:104B6000032080BD002070470020704710B5134619
:104B70000A460024214600F021FA204610BD10B557
:104B800013460A460024214600F0E8FA204610BDEC
:104B900010B50446802100F0B5FA0021204600F04F
:104BA000B1FA10BDB0B513460A462B21C9004350D7
:104BB000A524A4000325055141184B60002421467B
:104BC00000F0FCF92046B0BD10B5A52189000522F2
:104BD0004250002421462246234600F0EFF92046A9
:104BE00010BD10B513460A46A52189000224445081
:104BF0008361C3610024214600F0B0FA204610BD55
:104C000010B5A521890004224250002421462246E5
:104C1000234600F0A3FA204610BD70B50246807806
:104C2000D3781B021B1814780020A34204D870BD4F
:104C30006419A5B29D42FAD2157852195678052EFC
:104C400002D196788E4223D06419A5B29D42EED24D
:104C5000157852195678052E02D196788E4217D0C3
:104C60006419A5B29D42E2D2157852195678052EE4
:104C700002D196788E420BD06419A5B29D42D6D24D
:104C8000157852195678052ED2D196788E42CFD10A
:104C9000104670BD70B5002852D00378002B14D098
:104CA000041D0023E51E2D78002D10D0A51E2D78A3
:104CB000002D0ED0651E2D78002D0CD0251D1B1D3E
:104CC0002478002C2C46EDD107E0002305E00124D8
:104CD00002E0022400E003242343DBB25B009B1CC0
:104CE000138003224A700B700378002B28D0021D1A
:104CF0000220C5B24B5501231D4300244C55D51E3F
:104D00002D78002D1CD0861CF6B28D551E438C5577
:104D1000951E2D78002D13D0061DF6B28D551E431D
:104D20008C55551E2D78002D0AD0861DF6B28D5556
:104D30003343CC54141D08301378002B2246D8D1AD
:104D400070BD10B500280FD0A7239B00C318002406
:104D50005C639C62DC61002900D0996102700121D2
:104D6000197000F0BDF810BD032010BD80B55922A8
:104D7000D2008058FDF792FA032804D8C100F14808
:104D8000C840C0B280BD0320C0B280BD80B55922EA
:104D9000D2008058FDF75CFA032804D8C100F74818
:104DA000C840C0B280BD0320C0B280BD70B504460B
:104DB000A5208000261800290DD0307A03284BD179
:104DC000706A4269002A47D000203064204690472C
:104DD000002841D070BD3068022838D1E069216ACE
:104DE00088420DD9431AE361204611461A46FFF75F
:104DF000C6FE002120460A460B4600F0DFF826E0FA
:104E000013D1A169814210D3706881420DD200256F
:104E1000204629462A46FFF7B2FE756020462946FD
:104E20002A462B4600F0CAF811E0307A032807D151
:104E3000706AC168002903D000203064204688478A
:104E40008021204600F05EF92046FFF7BDFE307B52
:104E5000002801D000203073002070BDB0B504469A
:104E6000A5208000201800290DD0027A032A1ED127
:104E7000426A9269002A1AD00023036420469047B0
:104E8000002814D0B0BD0168032910D15721890032
:104E900065182B6869688B420BD95B1A2B608B42B3
:104EA00000D30B46204611461A46FFF75FFE00204E
:104EB000B0BD017A032907D1416A0969002903D0ED
:104EC00000220264204688472046FFF799FE002012
:104ED000B0BD80B55922D2008058FDF70EFA80BDD2
:104EE00070B55921CA001E498150B7239B00C85094
:104EF00000234B8102244C72CC711A4C8C801A4CCA
:104F00000C608B81CB810B7486180846FDF7CAFFB5
:104F1000002801D0FBF77AFD3068002418232146D1
:104F20002246FDF75FF93068802158232246FDF7BD
:104F300059F930688121C0232246FDF753F93068C2
:104F400001210D022B4610332246FDF74BF9306844
:104F5000822122462B46FDF745F9204670BDC0460A
:104F60002819002008080000005C00407F220A4049
:104F7000282353435922D2008058C01849B200292F
:104F800004D4AB21490040180078704716300078EF
:104F90007047000010B514465922D20080581A46B6
:104FA0002346FDF7B3F9032804D8C1007348C8406D
:104FB000C0B210BD0320C0B210BDC04610B5592408
:104FC000E4000059FDF7CEF9032804D8C1006B486E
:104FD000C840C0B210BD0320C0B210BDF0B583B050
:104FE0000446A52080002118012202920A720025A1
:104FF000255065600D610D730B2040012018019054
:10500000486A00280AD04268002A07D000212046BA
:105010009047002801D1054600E0032500274026DF
:10502000204639463A463346FFF7B4FF01980299C5
:1050300081800660802120463A463346FFF7AAFF6A
:105040000298A0842662284603B0F0BDA7218900FB
:10505000425C042A02D14018417801700020704758
:1050600080B5A7218900425C032A07D14118C9698C
:10507000002903D0C969002900D08847002080BDDD
:10508000017400207047000080B55922D20080587A
:10509000FEF7C1F8032804D8C1003848C840C0B2A0
:1050A00080BD0320C0B280BD70B50446144E851982
:1050B000284600F065F8A520800001212150201825
:1050C000E9884160A15D1F200840022808D001281E
:1050D0000BD000280ED12046294600F093F870BD71
:1050E0002046294600F022FA70BD2046294600F0ED
:1050F000D6FA70BD80200140204600F003F870BD54
:10510000AA02000080B55922D2008058FDF73EF96E
:10511000032804D8C1001948C840C0B280BD03208C
:10512000C0B280BD80B55921C9004058FEF790F843
:10513000032804D8C1001148C840C0B280BD032074
:10514000C0B280BD00030103A7218900425C43185F
:105150005A700422425400207047000010B55924B0
:10516000E4000059FDF73EF9032804D8C1000348C4
:10517000C840C0B210BD0320C0B210BD000301037F
:105180000A7802704A7842708A78CB781B029A18A3
:1051900042800A794B791B029A1882808A79C979F0
:1051A00009028918C1807047B0B582B001AA0024F5
:1051B0001480002913D05722D20085182960E9698C
:1051C000890040188058C16A002902D001A8884788
:1051D000A861286A401C2862204602B0B0BD0324A2
:1051E000204602B0B0BD80B55722D2008258002AB6
:1051F00002D01268904780BD002080BD80B5FFF7C7
:1052000091FF80BDF0B581B00E460446097860205C
:105210000840A72189006718002812D0402802D032
:10522000202800D04CE1B86B800020185721C9001D
:10523000405882682046314690470546284601B0CE
:10524000F0BD7078092800D93AE1400078448088A0
:1052500040008744090018003501230035012D0066
:105260004B003501650073003878401E022800D9D4
:1052700026E1F088022800D022E1B868002800D199
:10528000C8E00320C7E03878401E022800D917E1A3
:10529000708800250128D1D1BD6025E170880228E1
:1052A00000D177E0012800D00AE10120B86073E066
:1052B000B088002800D003E1F088002800D0FFE08B
:1052C00070887F2800D9FBE03978032900D1F7E006
:1052D000B870C5B220462946FFF7D6FE2046FFF734
:1052E0008FFC002D00D119E1022018E1684600254D
:1052F00005807088010A491E0E2900D9E0E0C046E9
:105300007944097949008F4407545ADBDB6972DB21
:10531000DBDBDBDBDBDB7C00207CB9690A6875E06A
:10532000F088012800D0CBE03878411E02293AD21B
:105330000025A560214608310122BBE070887A4D26
:1053400028700106490E0BD080212046FFF7DAFEB7
:1053500000212046FFF7D6FE0325284601B0F0BD08
:10536000C1B23878032861D0022800D080E000293B
:1053700012D061602046FFF736FF002800D1B9E067
:10538000054680212046FFF7BDFE00212046FFF79D
:10539000B9FE68E0707938712046FFF731FC0025CE
:1053A000284601B0F0BD032800D089E0211D01226C
:1053B00035E0F869217C00296AD0C16A69E0C0B291
:1053C000052800D97CE0C046784400794000874435
:1053D0000296999C9FA2B869426814E0207C00283C
:1053E0006ED1F869416B68468847014656E0207CDB
:1053F000002865D1F869016B684688470146072097
:105400004BE0B869C269002A5AD0207C69469047AF
:10541000014643E00120E06021460C310222204693
:10542000FFF7DFFB0025284601B0F0BD002953D06F
:1054300060688842B0D0C1B22046FFF789FB297866
:1054400061602046FFF7CFFE0028A5D005468021E9
:105450002046FFF757FE00212046FFF753FE217933
:105460002046FFF775FB02203870284601B0F0BDDA
:1054700080212046FFF746FE00212046FFF742FE2E
:1054800029782046FFF764FB0325284601B0F0BDCC
:10549000816A68468847014602204870F0880028E3
:1054A00022D06A461288002A0AD0824200D30246DD
:1054B000684602802046FFF794FB284601B0F0BD05
:1054C00080212046FFF71EFE002520462946FFF7D3
:1054D00019FE284601B0F0BD616002203870002539
:1054E00020462946FFF734FB2046FFF789FB284674
:1054F00001B0F0BD2046FFF783FB03200FE0B86941
:10550000826880E7B869C2687DE7B86902697AE7AE
:10551000B869426977E7B869826974E70120387031
:105520000025284601B0F0BD64010020F0B581B02F
:105530000F460446097860200840A72189006618B4
:10554000397900280CD0402801D020287ED120466F
:10555000FFF708FB002500285FD0284601B0F0BD0A
:105560007878002819D0012825D003286ED130780A
:10557000032823D17888002808D17F20084005D04F
:10558000F888002802D12046FFF7BCFD2046FFF72F
:1055900037FB0025284601B0F0BD55208000327849
:1055A000032A1AD0022A51D14A064FD109066CD5D6
:1055B000214614316AE03078032819D0022845D1F9
:1055C000480643D02046FFF79DFD80212046FFF787
:1055D00099FD0025284601B0F0BD0F230B40142291
:1055E0005A43802925D2A318592292009A5A22E0C0
:1055F000788800250028B0D14806009103D02046C5
:105600000099FFF7B3FB2046FFF7FAFA204600990E
:10561000FFF7A8FA0028A0D10025B563F0698268D9
:10562000002A9AD02046394690470546284601B0C0
:10563000F0BDA218928C002A08D07F230B401422C0
:105640005A43A71880290DD314370CE08021204637
:10565000FFF758FD002520462946FFF753FD284651
:1056600001B0F0BD3F1800254806284604D020466A
:10567000FFF77CFC411E88413860022220463946F3
:10568000FFF7AFFA284601B0F0BD211800250D60E4
:1056900002222046FFF7A5FA284601B0F0BDF0B57A
:1056A00081B00D46044609786020084003D04028A8
:1056B00001D020280AD1A720800027183878401E62
:1056C000022803D8A8880106490E0BD08021204665
:1056D000FFF718FD002620463146FFF713FD304640
:1056E00001B0F0BDC1B22046FFF73EFA0326002804
:1056F000F5D1F8698268002AF1D00020B863074626
:105700002046294690470646E8880028E7D1002E23
:10571000E5D12046FFF774FA3E46304601B0F0BDB1
:10572000704700000048704768030020F0B582B061
:1057300002460F78B80013181058844C0440C878FB
:10574000032801900AD800250095C04678440079C6
:105750004000874401060C09012006E0012000906A
:1057600005E00120800201E0032040020443784D5F
:105770002C431C601868CA4C2040384328431860EA
:10578000087B002804D00198022823D0284622E074
:105790004878002800D183E0F800704F3A58704EE6
:1057A00032403A50C988032291433A580A433A504A
:1057B0001868400605D51868204029464031014345
:1057C000196030341A6822400198012800D08FE017
:1057D0002A438FE05F481A685F4C144004431C6002
:1057E000F8005E4A84585E4F3C4084500324E443F2
:1057F0000E892640855835438550801842683A40C6
:1058000042604A8922404468144344600120820374
:10581000186810404A78B249002A1CD00028009E1F
:105820009F4C04D0186820409F4A02431A601868B1
:105830004006474D05D5186820402A4640320243AD
:105840001A60303418682040019A012A1FD02A4675
:10585000203250401CE00028009E914C04D0186873
:105860002040914A02431A6018684006384D05D519
:10587000186820402A46403202431A6018680840DF
:1058800088494140196030341A68224003E02843B7
:1058900018601A680A402A431A60304602B0F0BD08
:1058A000009CF8002D4D281845682D4E3540456068
:1058B000CD880326B54346682E43466045683F269B
:1058C000B606B5434560051D08693F2817D3C106D4
:1058D0004009002900D1401E264680062968014360
:1058E0000120C007084328601868400418D41DE050
:1058F00020356A40009E1A60304602B0F0BD002894
:1059000005D00121014040084018810601E0012036
:10591000C10728680843264628601868400405D552
:1059200018685F490840604901431960002F04D09E
:1059300018686B4901400B4A03E010686849014050
:10594000584A4A401A60304602B0F0BD8F89FF07BE
:1059500080800000808100000F0EFF07009800404B
:105960000000FFFF80A0000070B50A789200865802
:1059700080184A780B7B2449002B27D001239B03F6
:105980001E40474B002A2AD0474D002E03D0026804
:105990001A402A4302601C46303402685206504ABC
:1059A00003D506681E400E43066006681E402E435F
:1059B00006600B46403B056825401D4305600368B3
:1059C0001340403919430160002070BD002A15D0F2
:1059D000334C2246303273060B46ECD4EFE7002EF0
:1059E00004D002681A40304C144304601A46303226
:1059F000046864063A4C0D46D3D4D6E77204384A9C
:105A0000DDD5294B264CD6E7C08000000121C90313
:105A1000826D0A4382650020704701210164026C97
:105A20008A430264C907026C8A430264002141640C
:105A300008467047016C024A0A4002640020704721
:105A40007F40FFFFB0B50A7B002A01D00020B0BD27
:105A50000A789300C258C0184B78002B0ED052061B
:105A60000E4A0F4B05D504681C40154620352543CA
:105A70000560C9780129E9D0303309E05104094AA9
:105A8000174B05D50168064C0C40074961180160A9
:105A900001681940514001600020B0BDA0800000A5
:105AA0000F0FFF0780B0000080C0000010B54B78DA
:105AB000002B04D0094A002B04D1094B03E0064A0D
:105AC000002BFAD0074B0978890044581C405440F9
:105AD0004450002010BDC04680900000908000001F
